{
  "contractName": "Election",
  "abi": [
    {
      "constant": true,
      "inputs": [],
      "name": "candidatesCount",
      "outputs": [
        {
          "name": "",
          "type": "uint256"
        }
      ],
      "payable": false,
      "stateMutability": "view",
      "type": "function"
    },
    {
      "constant": true,
      "inputs": [
        {
          "name": "",
          "type": "uint256"
        }
      ],
      "name": "candidates",
      "outputs": [
        {
          "name": "id",
          "type": "uint256"
        },
        {
          "name": "name",
          "type": "string"
        },
        {
          "name": "voteCount",
          "type": "uint256"
        }
      ],
      "payable": false,
      "stateMutability": "view",
      "type": "function"
    },
    {
      "inputs": [],
      "payable": false,
      "stateMutability": "nonpayable",
      "type": "constructor"
    }
  ],
  "bytecode": "0x6080604052600060015534801561001557600080fd5b5061005a6040518060400160405280600b81526020017f43616e64696461746520310000000000000000000000000000000000000000008152506100a360201b60201c565b61009e6040518060400160405280600b81526020017f43616e64696461746520320000000000000000000000000000000000000000008152506100a360201b60201c565b6101c3565b600160008154809291906001019190505550604051806060016040528060015481526020018281526020016000815250600080600154815260200190815260200160002060008201518160000155602082015181600101908051906020019061010d92919061011e565b506040820151816002015590505050565b828054600181600116156101000203166002900490600052602060002090601f016020900481019282601f1061015f57805160ff191683800117855561018d565b8280016001018555821561018d579182015b8281111561018c578251825591602001919060010190610171565b5b50905061019a919061019e565b5090565b6101c091905b808211156101bc5760008160009055506001016101a4565b5090565b90565b610202806101d26000396000f3fe608060405234801561001057600080fd5b50600436106100365760003560e01c80632d35a8a21461003b5780633477ee2e14610059575b600080fd5b61004361010e565b6040518082815260200191505060405180910390f35b6100856004803603602081101561006f57600080fd5b8101908080359060200190929190505050610114565b6040518084815260200180602001838152602001828103825284818151815260200191508051906020019080838360005b838110156100d15780820151818401526020810190506100b6565b50505050905090810190601f1680156100fe5780820380516001836020036101000a031916815260200191505b5094505050505060405180910390f35b60015481565b6000602052806000526040600020600091509050806000015490806001018054600181600116156101000203166002900480601f0160208091040260200160405190810160405280929190818152602001828054600181600116156101000203166002900480156101c65780601f1061019b576101008083540402835291602001916101c6565b820191906000526020600020905b8154815290600101906020018083116101a957829003601f168201915b505050505090806002015490508356fea165627a7a72305820fdef2a72fe621edc28f2a08548499fd539bde9e0d90d584ebe98053070777ed60029",
  "source": "pragma solidity ^0.5.8;\r\n\r\ncontract Election {\r\n\tstruct Candidate {\r\n\t\tuint id;\r\n\t\tstring name;\r\n\t\tuint voteCount;\r\n\t}\r\n\r\n\tmapping(uint => Candidate)public candidates;\r\n\t\r\n\tuint public candidatesCount=0;\r\n\tconstructor() public {\r\n\t\taddCandidate(\"Candidate 1\");\r\n\t\taddCandidate(\"Candidate 2\");\r\n\t}\r\n\r\n\tfunction addCandidate(string memory _name)private {\r\n\t\tcandidatesCount++;\r\n\t\tcandidates[candidatesCount] = Candidate(candidatesCount, _name, 0);\r\n\t}\r\n} ",
  "sourcePath": "C:/Users/rksaz/Documents/Election-using-ethereum-blockchain/contracts/Election.sol",
  "compiler": {
    "name": "solc",
    "version": "0.5.8+commit.23d335f2.Emscripten.clang"
  },
  "schemaVersion": "3.0.11",
  "updatedAt": "2019-07-18T15:42:38.953Z",
  "devdoc": {
    "methods": {}
  },
  "userdoc": {
    "methods": {}
  }
}